:0300000002016298
:0C016200787FE4F6D8FD7581190200F9E1
:1001500000FF00FE00FD00FB00F700EF00DF00BF26
:02016000007F1E
:10013000E4FDFCC3ED9FEC9E5015E4FBFA0BBB0005
:0F014000010AEB647B4A70F50DBD00010C80E4F1
:01014F00228D
:1000F90078087C007D007BFF7A0179507E007F12B1
:100109001200D3900000AF82EF25E02408F808E63A
:10011900F5A07FF47E0112013075A0FFA3E582648A
:0701290009458370E180DC51
:10000300E709F608DFFA8046E709F208DFFA803EDF
:1000130088828C83E709F0A3DFFA8032E309F608CC
:10002300DFFA8078E309F208DFFA807088828C8334
:10003300E309F0A3DFFA806489828A83E0A3F608E8
:10004300DFFA805889828A83E0A3F208DFFA804CC2
:1000530080D280FA80C680D4806980F28033801099
:1000630080A680EA809A80A880DA80E280CA803302
:1000730089828A83ECFAE493A3C8C582C8CCC5837A
:10008300CCF0A3C8C582C8CCC583CCDFE9DEE7804A
:100093000D89828A83E493A3F608DFF9ECFAA9F0C9
:1000A300EDFB2289828A83ECFAE0A3C8C582C8CC1F
:1000B300C583CCF0A3C8C582C8CCC583CCDFEADE38
:1000C300E880DB89828A83E493A3F208DFF980CC9A
:1000D30088F0EF60010E4E60C388F0ED2402B40493
:1000E3000050B9F582EB2402B4040050AF2323453A
:0600F3008223900053730C
:00000001FF
