:0300000002000EED
:0C000E00787FE4F6D8FD75811A020055D9
:10011600010A000A0E3F065B4F666D7D077F6F037F
:080126000B00000002080000BC
:03014600EF600F58
:0D014900751902751AC7D51AFDD519FA1FD0
:0301560080EE2216
:03000B000200E50B
:0400E500C0E0C0D0E7
:1000E900758A18758CFC0509E50970020508E50A89
:1000F900B43C03750A00E509B4E80DE508B4030842
:08010900750800750900050AE4
:05011100D0D0D0E03267
:10012F005389F0438901758A18758CFCD2AFC28D43
:07013F00D28CD2A9C2B92243
:10009A00E50A75F00A84240EF8E6F50BE50A75F010
:1000AA000A84740E25F0F8E6F50CE4F518E5181440
:1000BA00600E047019C2A4D2A3D2A2850C80800952
:1000CA00D2A4C2A3C2A2850B807F0A120146E4F51C
:0B00DA00800518E518C3940540D322F0
:0B01590012012FE4F58012009A80FBD9
:10001A00020159E493A3F8E493A34003F68001F2A2
:10002A0008DFF48029E493A3F85407240CC8C333E7
:10003A00C4540F4420C8834004F456800146F6DFB6
:10004A00E4800B0102040810204080900116E47E2F
:10005A00019360BCA3FF543F30E509541FFEE493AB
:10006A00A360010ECF54C025E060A840B8E493A372
:10007A00FAE493A3F8E493A3C8C582C8CAC583CA9D
:10008A00F0A3C8C582C8CAC583CADFE9DEE780BE55
:01012E0000D0
:00000001FF
