:03000000020003F8
:0C000300787FE4F6D8FD75811902004AF0
:100173000A0E3F065B4F666D7D077F6F0509000022
:0301830000000079
:03018700EF600F17
:0D018A007518027519C7D519FDD518FA1F93
:0301970080EE22D5
:10008F00EF14B4080050549000A475F003A4C58376
:10009F0025F0C583730200BC0200C00200C4020039
:1000AF00C80200CC0200D40200DC0200E4D2A4801B
:1000BF000ED2A48012D2A48016D2A4801AC2A4D2C7
:1000CF00A3D2A28016C2A4D2A3C2A2800EC2A4C27F
:1000DF00A3D2A28006C2A4C2A3C2A2740E2DF8E6B8
:0B00EF00F5807F01120187E4F58022FC
:10014F007B0A75080FAF087E007C037DE81200FA6A
:10015F008F09EBC313FD7F0312008F7D017F021206
:04016F00008F80E19C
:10000F0002014FE493A3F8E493A34003F68001F2B7
:10001F0008DFF48029E493A3F85407240CC8C333F2
:10002F00C4540F4420C8834004F456800146F6DFC1
:10003F00E4800B0102040810204080900173E47EDD
:10004F00019360BCA3FF543F30E509541FFEE493B6
:10005F00A360010ECF54C025E060A840B8E493A37D
:10006F00FAE493A3F8E493A3C8C582C8CAC583CAA8
:10007F00F0A3C8C582C8CAC583CADFE9DEE780BE60
:010186000078
:1000FA00BC000BBE0029EF8DF084FFADF022E4CCEA
:10010A00F875F008EF2FFFEE33FEEC33FCEE9DECB2
:10011A00984005FCEE9DFE0FD5F0E9E4CEFD22EDF8
:10012A00F8F5F0EE8420D21CFEADF075F008EF2F42
:10013A00FFED33FD4007985006D5F0F222C398FD33
:05014A000FD5F0EA22D0
:00000001FF
