:03000000020003F8
:0C000300787FE4F6D8FD75811102004AF8
:0C00DB000A08FF76FB79F738F338EF3F96
:1000C800AC071FEC600CE4FE7D7BEEC39D50F10E87
:0200D80080F8AE
:0100DA002203
:10008F00E4F58075A0FFFB7F191200C8EB25E02473
:10009F0008F8E6F5A07F191200C8EB25E02409F84F
:1000AF00E6F5807F191200C8E4F58075A0FF7F196F
:0900BF001200C80BBB05D080C77C
:10000F0002008FE493A3F8E493A34003F68001F278
:10001F0008DFF48029E493A3F85407240CC8C333F2
:10002F00C4540F4420C8834004F456800146F6DFC1
:10003F00E4800B01020408102040809000DBE47E76
:10004F00019360BCA3FF543F30E509541FFEE493B6
:10005F00A360010ECF54C025E060A840B8E493A37D
:10006F00FAE493A3F8E493A3C8C582C8CAC583CAA8
:10007F00F0A3C8C582C8CAC583CADFE9DEE780BE60
:0100E7000018
:00000001FF
