:0300000002008675
:0C008600787FE4F6D8FD758107020003C6
:10007300AC071FEC600CE4FE7D7BEEC39D50F10EDC
:0200830080F803
:010085002258
:100003007B027F0575804075B0FF75A0FF20B109A5
:100013007F0A120073E4FF802220B0097F0A1200D6
:10002300737F01801620B2097F0A1200737F02805A
:100033000A20B3077F0A1200737F03BF050575808B
:1000430040801EEFB5030D7580737F011200737539
:10005300A07F8015EF600764016003BF030B758009
:10006300797F0112007375A0FFE5B0F4709480F9F5
:00000001FF
