:030000000200D922
:0C00D900787FE4F6D8FD75811E0201203E
:1001E700020AEA5F0A123F065B4F666D7D077F6F63
:0801F700060C000000000000EE
:03021700EF600F86
:0D021A00751D02751EC7D51EFDD51DFA1FEE
:0302270080EE2244
:100200005389F0438901758A18758CFCC28DD28C94
:07021000D2A9D2AFC2B9224E
:03000B000201BA35
:0401BA00C0E0C0D011
:1001BE00758A18758CFC0509E50970020508B4E806
:1001CE0013E508B4030E750800750900E50B150B51
:0401DE007002150A8C
:0501E200D0D0D0E03296
:10000E00AE0AAF0B7C277D1012016574122FF8E635
:10001E00F50CAE0AAF0B7C037DE81201657C007D0A
:10002E000A12016574122DF8E6F50DAE0AAF0B7CBF
:10003E00007D641201657C007D0A12016574122D2B
:10004E00F8E6F50EAE0AAF0B7C007D0A1201657C58
:10005E00007D0A12016574122DF8E6F50FAE0AAF97
:10006E000B7C007D0A12016574122DF8E6F510E482
:10007E00F51CE51C14601814602014602814603000
:10008E002404703AD2A4D2A3D2A2850C80802AD2A4
:10009E00A4D2A3C2A2850D80801FD2A4C2A3D2A2D5
:1000AE00850E808014D2A4C2A3C2A2850F808009BF
:1000BE00C2A4D2A3D2A28510807F01120217E4F54A
:0B00CE0080051CE51CC3940540A8221F
:0B022A00120200E4F58012000E80FBC1
:1000E50002022AE493A3F8E493A34003F68001F205
:1000F50008DFF48029E493A3F85407240CC8C3331C
:10010500C4540F4420C8834004F456800146F6DFEA
:10011500E4800B01020408102040809001E7E47E92
:10012500019360BCA3FF543F30E509541FFEE493DF
:10013500A360010ECF54C025E060A840B8E493A3A6
:10014500FAE493A3F8E493A3C8C582C8CAC583CAD1
:10015500F0A3C8C582C8CAC583CADFE9DEE780BE89
:0101FF0000FF
:10016500BC000BBE0029EF8DF084FFADF022E4CC7E
:10017500F875F008EF2FFFEE33FEEC33FCEE9DEC47
:10018500984005FCEE9DFE0FD5F0E9E4CEFD22ED8D
:10019500F8F5F0EE8420D21CFEADF075F008EF2FD7
:1001A500FFED33FD4007985006D5F0F222C398FDC8
:0501B5000FD5F0EA2265
:00000001FF
